:100000000C94910C0C94B90C0C94B90C0C94B90C84
:100010000C94B90C0C94B90C0C94B90C0C94B90C4C
:100020000C94B90C0C94B90C0C94181F0C947F1DF3
:100030000C94B90C0C94B90C0C94B90C0C94B90C2C
:100040000C94DD1C0C94B90C0C944D1D0C94271DC4
:100050000C94B90C0C94B90C0C94B90C0C94B90C0C
:100060000C94B90C0C94B90C4573637269626520E9
:1000700027617975646127207061726120766572ED
:10008000206C6F7320636F6D616E646F732E00431D
:10009000C3A16C63756C6F206465207275746120F8
:1000A0006DC3A17320636F7274612E000A3D3D3DE4
:1000B00020545439313532204C6F636F4E657420B3
:1000C0002D20456E74726567612033203D3D3D00F3
:1000D0005B454550524F4D5D2053696E20646174FD
:1000E0006F732076616C69646F732E20436F6E6648
:1000F000696775726163696F6E206465206661620D
:10010000726963612E005B454550524F4D5D20433F
:100110006F6E66696775726163696F6E2072657371
:10012000746175726164612E004E4F524D414C20D6
:10013000616374697661646120647572616E74656F
:1001400020656C206769726F2E00494E56455254E7
:100150004944412061637469766164612064757209
:10016000616E746520656C206769726F2E005B504C
:100170004F4C5D20506F6C61726964616420005B5C
:100180004552524F525D204E6F2073652064657456
:10019000656374C3B320656C2066696E616C20640E
:1001A0006520756E207061736F2E005B4552524F53
:1001B000525D204E6F207365207075646F20696EEC
:1001C000696369617220656C207369677569656E22
:1001D0007465207061736F2E005B415649534F5D0B
:1001E000204D6F76696D69656E746F2063616E6313
:1001F000656C61646F2E005B4F4B5D204D6F7669BF
:100200006D69656E746F20636F6D706C6574616489
:100210006F3A207075656E746520656E636C6176EB
:1002200061646F2E002D2D2D2D2D2D2D2D2D2D2D7D
:100230002D2D2D2D2D2D2D2D2D0A006E6F20646955
:1002400073706F6E69626C65006465736163746975
:100250007661646F004E4F524D414C00494E44450B
:100260005841444F0053656E736F7220676C6F6224
:10027000616C204C6F636F4E65743A200056656C5C
:100280006F63696461642050574D3A20004D6F647C
:100290006F3A200029002C20616363657369626CEA
:1002A0006520706F722065787472656D6F206F7055
:1002B000756573746F002028636F6E666967757269
:1002C00061646120656E20706F736963696F6E2071
:1002D0000056696120004E494E47554E412056490F
:1002E0004120434F4E464947555241444100444501
:1002F00053434F4E4F4349444100566961206C6F50
:10030000676963612061637475616C3A20004445DC
:1003100053434F4E4F43494441004E4F20434F4EAD
:10032000464947555241444100434F4E464947557F
:100330005241444100506F736963696F6E20666972
:10034000736963612061637475616C3A2000494E82
:1003500041435449564F0041435449564F0052655A
:10036000666572656E6369612076696120313A2045
:1003700000494E41435449564F0041435449564F5A
:100380000053656E736F722076696120313A2000E8
:10039000454E434C415641444F00454E204D4F562B
:1003A000494D49454E544F0053656E736F72206539
:1003B0006E636C6176616D69656E746F3A20005092
:1003C00075656E74653A20000A2D2D2D20457374D5
:1003D00061646F20545439313532202D2D2D002089
:1003E00020696D706F72743A3C6461746F733E2063
:1003F0002020202020202020202020496D706F7296
:10040000746120636F6E66696775726163696F6E90
:10041000206465736465206C696E656120494D5088
:100420004F52543A2028706567617220656C2074C1
:100430006578746F290020206578706F727461721E
:10044000207C20636F6E666967206578706F7274B8
:1004500020204578706F72746120636F6E666967E3
:1004600075726163696F6E20636F6D6F206C696E6A
:10047000656120494D504F52543A2028636F70698E
:1004800061722F7065676172290020207265736543
:100490007420656570726F6D207C20666162726980
:1004A0006361202020205265737461757261206C35
:1004B0006120454550524F4D20612076616C6F722E
:1004C0006573206465206661627269636100202043
:1004D000656570726F6D2064756D7020202020201E
:1004E000202020202020202020204D75657374724C
:1004F0006120656C20636F6E74656E69646F206443
:1005000065206C6120454550524F4D002020677595
:100510006172646172202020202020202020202071
:100520002020202020202020477561726461206CEB
:100530006120636F6E66696775726163696F6E20B3
:1005400061637475616C20656E20454550524F4D56
:1005500000202073656E736F7220676C6F62616C30
:10056000203C302E2E36353533353E2020436F6EFD
:1005700066696775726120656C2073656E736F7252
:10058000204C6F636F4E657420676C6F62616C20E6
:100590006465206F6375706163696F6E2028303DFC
:1005A00064657361637469766172290020207669DD
:1005B0006120636C65617220202020202020202093
:1005C0002020202020202020456C696D696E61204C
:1005D000746F646173206C61732076696173206449
:1005E000652073616C6964612C20636F6E73657242
:1005F000766120706F736963696F6E203120792096
:10060000616374697661206D6F646F206E6F726DC7
:10061000616C002020766961206C697374207C20F5
:100620007669617320202020202020202020204D6A
:10063000756573747261206C6173207669617320D3
:10064000636F6E6669677572616461732079207388
:100650007520706F73696369C3B36E00202076697B
:10066000612064656C203C322E2E32343E202020E6
:100670002020202020202020456C696D696E61209B
:10068000756E61207669612064652073616C6964B0
:100690006100202076696120616464203C312E2E47
:1006A00032343E203C312E2E34383E205B73656E52
:1006B000736F725D202020417369676E6120756ED3
:1006C00061207669612064652073616C69646120D2
:1006D0006120756E6120706F736963696F6E207938
:1006E000206F7063696F6E616C6D656E74652075E7
:1006F0006E2073656E736F720020206D6F646F20C3
:10070000696E64657861646F20202020202020209D
:10071000202020202050482F50412076616E2061FB
:10072000206C61207369677569656E7465207669F0
:10073000612064652073616C69646120636F6E661B
:10074000696775726164610020206D6F646F206E4F
:100750006F726D616C20202020202020202020201E
:100760002020202050482F5041206D756576656E01
:1007700020756E6120706F736963696F6E206D659F
:1007800063616E69636100202076656C6F636964E4
:100790006164203C302E2E3235353E202020202032
:1007A000202020416A7573746120656C2050574D7C
:1007B0002064656C206D6F746F7200202070617210
:1007C0006172202020202020202020202020202096
:1007D0002020202020202043616E63656C6120650D
:1007E0006C206D6F76696D69656E746F20616374DE
:1007F00075616C002020313830207C206769726F71
:1008000020313830202020202020202020202020AF
:10081000476972612031383020677261646F7320DC
:10082000285041534F535F4749524F5F3138302072
:100830007061736F73290020206D61203C312E2E72
:1008400034383E202020202020202020202020205E
:100850002020204D75657665206E20706F7369636A
:10086000696F6E657320656E2073656E7469646F61
:1008700020616E7469686F726172696F7300202005
:100880006D68203C312E2E34383E20202020202040
:10089000202020202020202020204D7565766520F6
:1008A0006E20706F736963696F6E657320656E206B
:1008B00073656E7469646F20686F726172696F002E
:1008C000202069726578203C312E2E34383E20205D
:1008D0002020202020202020202020205661206160
:1008E00020756E6120706F736963696F6E20666931
:1008F000736963612065786163746120706F722031
:10090000656C2065787472656D6F20646520726512
:10091000666572656E6369610020206972203C31F2
:100920002E2E32343E202020202020202020202067
:1009300020202020205661206120756E612076C322
:10094000AD612064652073616C696461206CC3B320
:100950006769636120636F6E666967757261646160
:10096000207573616E646F20656C206578747265A4
:100970006D6F206D61732063657263616E6F00201F
:10098000207061207C207061736F20616E746968D3
:100990006F726172696F20202020204D7565766529
:1009A00020756E207061736F20616E7469686F725C
:1009B0006172696F2061207369677569656E74651E
:1009C0002076C3AD6120696E646578616461002042
:1009D000207068207C207061736F20686F72617274
:1009E000696F2020202020202020204D756576650D
:1009F00020756E207061736F20686F726172696F0D
:100A00002061207369677569656E74652076C3AD72
:100A10006120696E64657861646100202076696197
:100A20003161717569207C20763161202020202081
:100A300020202020202020436F6E66696775726138
:100A4000206C6120706F736963696F6E20616374DD
:100A500075616C20636F6D6F207265666572656E7F
:100A600063696120666973696361207920766961D1
:100A7000206C6F67696361203100202065737461A9
:100A8000646F2020202020202020202020202020D3
:100A90002020202020204D756573747261207365BD
:100AA0006E736F72657320792065737461646F0073
:100AB00020206179756461202020202020202020C2
:100AC0002020202020202020202020204D7565730C
:100AD0007472612065737461206179756461000AC4
:100AE000436F6D616E646F7320646973706F6E69BC
:100AF000626C65733A0000000000240027002A00A1
:100B000000000000250028002B000000000023004A
:100B1000260029000404040404040404020202025E
:100B200002020303030303030102040810204080B0
:100B30000102040810200102040810202D2D2D2D83
:100B40002D2D2D2D2D2D2D2D2D2D2D2D2D2D2D2DD5
:100B50002D2D2D2D2D2D2D2D2D2D2D0A0020203C20
:100B60002D2D205055454E54452041515549005D8D
:100B70000020205B73656E736F72200029002020B7
:100B8000286F7075657374612000706F7369636995
:100B90006F6E200073696E20636F6E666967757291
:100BA0006172003A200056696120004E4F524D415B
:100BB0004C00494E44455841444F004E756D657296
:100BC0006F20646520766961733A20004D6F646F11
:100BD000206465207265636F727269646F3A2000E9
:100BE0000A2D2D2D2056696173206C6F6769636132
:100BF0007320636F6E666967757261646173202D1F
:100C00002D2D002D2D2D2046696E206578706F7278
:100C1000746163696F6E202D2D2D0A003B7669612A
:100C20003A003B6D6F646F3A003B6C6E3A00696D41
:100C3000706F72743A73673A0044657370756573C8
:100C400020656A65637574612027726566657265E3
:100C50006E636961617175692720706172612065D9
:100C6000737461626C65636572206C612072656685
:100C70006572656E6369612E006465206F74726FC2
:100C8000206465636F646966696361646F72207074
:100C9000617261207472616E736665726972206C34
:100CA0006120636F6E66696775726163696F6E2E2E
:100CB00000436F706961206C6120736967756965B5
:100CC0006E7465206C696E6561207920706567615E
:100CD0006C6120656E20656C206D6F6E69746F723B
:100CE000207365726965000A2D2D2D204578706F7F
:100CF0007274617220636F6E666967757261636991
:100D00006F6E20545439313532202D2D2D005B412A
:100D10005649534F5D20456A65637574612027729B
:100D200065666572656E63696161717569272070BA
:100D30006172612065737461626C65636572206CB9
:100D400061207265666572656E6369612064652005
:100D500076696120312E005B4F4B5D2056696173CF
:100D600020696D706F7274616461733A20005B4F2B
:100D70004B5D20436F6E66696775726163696F6E64
:100D800020696D706F72746164612E005B45525210
:100D90004F525D204461746F7320646520696D70EB
:100DA0006F72746163696F6E20766163696F732E11
:100DB000002D2D2D2D2D2D2D2D2D2D2D2D2D2D2D90
:100DC0002D2D2D2D2D2D0A002073656E736F723D14
:100DD000003A20706F733D005669612000494E54FF
:100DE00045524E4F20286C65766120656E636C61BC
:100DF00076616D69656E746F290045585445524E91
:100E00004F2028443429004D6F646F20636F6E7447
:100E100061646F723A200053656E736F7220676C65
:100E20006F62616C3A2000506F736963696F6E2066
:100E300061637475616C207075656E74653A20002D
:100E40005669613120636F6E6669677572616461AE
:100E50003A20004D6F646F207265636F727269642F
:100E60006F3A200056657273696F6E3A20000A2D42
:100E70002D2D20454550524F4D2054543931353297
:100E8000202D2D2D005B4552524F525D20436F6D3A
:100E9000616E646F20646573636F6E6F6369646F06
:100EA0003A20005B4F4B5D205669617320656C6989
:100EB0006D696E616461732C2076696120312073E5
:100EC000696E20636F6E666967757261722C206D42
:100ED0006F646F204E4F524D414C2E005B4F4B5D67
:100EE00020454550524F4D20792065737461646FE1
:100EF00020656E206D656D6F726961207265737417
:100F000061757261646F73206120666162726963EA
:100F1000612E005B4F4B5D20436F6E666967757293
:100F20006163696F6E2067756172646164612065D9
:100F30006E20454550524F4D2E005B4F4B5D205368
:100F4000656E736F7220676C6F62616C204C6F63AB
:100F50006F4E657420636F6E666967757261646F4A
:100F60003A20005B4F4B5D2053656E736F722067B4
:100F70006C6F62616C204C6F636F4E6574206465AA
:100F800073616374697661646F2E005B4552524FE2
:100F9000525D2053656E736F7220646562652065D3
:100FA0007374617220656E7472652030207920360A
:100FB000353533352028303D646573616374697657
:100FC0006172292E005B4F4B5D2056656C6F636923
:100FD0006461642050574D3A20005B4552524F5295
:100FE0005D204C612076656C6F6369646164206488
:100FF00065626520657374617220656E7472652028
:10100000302079203235352E005B4F4B5D204F72FA
:1010100064656E2064652070617261646120656E34
:1010200076696164612E005B4552524F525D204EDD
:101030006F20736520707565646520696E696369EA
:10104000617220656C206769726F203138302E0024
:101050005B4F4B5D204769726F2031383020696EDD
:1010600069636961646F2E005B4552524F525D2087
:101070004E6F20736520707565646520696E6963C5
:1010800069617220656C206D6F76696D69656E743B
:101090006F2E00207061736F7320696E69636961E0
:1010A000646F2E005B4F4B5D204D6F76696D6965F7
:1010B0006E746F20616E7469686F726172696F20FF
:1010C00064652000207061736F732E005B4552527F
:1010D0004F525D20496E6469636120656E7472656C
:1010E0002031207920005B4552524F525D204E6FD7
:1010F00020736520707565646520696E6963696138
:101100007220656C206D6F76696D69656E746F2EE7
:1011100000207061736F7320696E69636961646F29
:101120002E005B4F4B5D204D6F76696D69656E7467
:101130006F20686F726172696F2064652000207093
:1011400061736F732E005B4552524F525D20496EA2
:101150006469636120656E747265203120792000B6
:101160005B4F4B5D204D6F76696D69656E746F20C6
:1011700065786163746F20696E69636961646F206B
:101180006861636961206C6120706F736963696F66
:101190006E20005B4552524F525D204E6F207365AA
:1011A00020707565646520696E6963696172206588
:1011B0006C206D6F76696D69656E746F2E005B458E
:1011C00052524F525D205072696D65726F20636F8D
:1011D0006E666967757261206C6120726566657202
:1011E000656E63696120636F6E2027766961316186
:1011F000717569272E002E005B4552524F525D20BB
:10120000496E6469636120756E6120706F736963F4
:10121000696F6E20656E7472652031207920002917
:101220002E002028706F736963696F6E2066697382
:1012300069636120005B4F4B5D204D6F76696D697E
:10124000656E746F20696E69636961646F2068619F
:1012500063696120766961206C6F67696361200052
:101260005B4552524F525D204E6F20736520707562
:1012700065646520696E696369617220656C206DC3
:101280006F76696D69656E746F2E00206E6F2065D4
:1012900073746120636F6E66696775726164612E35
:1012A000005B4552524F525D204C612076696120AF
:1012B0006C6F6769636120005B4552524F525D203D
:1012C0005072696D65726F20656A6563757461201F
:1012D000277265666572656E6369616171756927FC
:1012E0002E005B4552524F525D20496E6469636126
:1012F00020756E612076696120656E74726520319B
:1013000020792032342E005B4F4B5D204D6F646F8F
:10131000204E4F524D414C20616374697661646F79
:101320002E005B4F4B5D20566961203120636F6E4C
:101330007365727661646120636F6D6F207265669C
:101340006572656E6369612E005B4F4B5D20566967
:10135000617320322E2E323420656C696D696E61A6
:101360006461732E0020656C696D696E6164612E25
:10137000005B4F4B5D20566961206C6F676963614C
:101380002000206E6F2065737461626120636F6E50
:1013900066696775726164612E005B415649534FFF
:1013A0005D204C612076696120005B4552524F52AE
:1013B0005D204C6120766961203120736520646571
:1013C00066696E6520636F6E20277265666572655B
:1013D0006E63696161717569272079206E6F207372
:1013E0006520656C696D696E612E005B4552524FD8
:1013F000525D20496E6469636120756E6120766973
:101400006120656E747265203220792032342E009E
:101410002C2073656E736F72204C6F636F4E657412
:10142000200020617369676E616461206120706FC4
:10143000736963696F6E2066697369636120005B1D
:101440004F4B5D20566961206C6F676963612000B6
:101450005B4552524F525D20506F736963696F6EE6
:10146000206E6F2076616C69646120286F637570EF
:10147000616461206F206675657261206465206F0C
:101480007264656E292E005B4552524F525D2050AA
:101490006F736963696F6E2066756572612064653C
:1014A000206F7264656E206F20736C6F74206F63A1
:1014B000757061646F2E00206D6F64696669636189
:1014C00064613A2073656E736F72203D20005B4F3C
:1014D0004B5D205669612000207961207469656E3A
:1014E00065206573652073656E736F722E005B41B6
:1014F0005649534F5D20566961200020796120656F
:1015000078697374652E2053696E2063616D62691A
:101510006F732E005B415649534F5D205669612021
:10152000005B4552524F525D2055736120707269C5
:101530006D65726F20277265666572656E6369619D
:1015400061717569272E005B4552524F525D204CE8
:101550006120766961206C6F676963612031207357
:101560006F6C6F207075656465206573746172209F
:10157000656E20706F736963696F6E20312E005B3A
:101580004552524F525D20466F726D61746F3A2022
:1015900076696120616464203C76696120312E2E79
:1015A00032343E203C706F736963696F6E20312E58
:1015B0002E34383E205B73656E736F725D005B4F37
:1015C0004B5D204D6F646F20494E44455841444F58
:1015D00020616374697661646F2E005B4552524FDF
:1015E000525D20436F6E66696775726120616C2081
:1015F0006D656E6F7320646F73207669617320630D
:101600006F6E202776696120736574272E005B4515
:1016100052524F525D205072696D65726F20656A3B
:10162000656375746120277265666572656E6369AE
:101630006161717569272E005B4F4B5D204D6F64B2
:101640006F204E4F524D414C206163746976616446
:101650006F2E005B4552524F525D20456E206D6FDC
:10166000646F20696E64657861646F20646562658B
:101670006E206578697374697220616C206D656E87
:101680006F7320646F7320766961732E005B45521F
:10169000524F525D204E6F207365207075656465F2
:1016A00020696E696369617220656C206D6F76696F
:1016B0006D69656E746F2E005B4552524F525D200E
:1016C0005072696D65726F20656A6563757461201B
:1016D000277265666572656E6369616171756927F8
:1016E0002E005B4F4B5D205061736F20616E7469FB
:1016F000686F726172696F20696E69636961646F96
:101700002E005B4F4B5D204D6F76696D69656E7481
:101710006F20616E7469686F726172696F20696EA3
:1017200064657861646F20696E69636961646F2EB6
:10173000005B4552524F525D20456E206D6F646FC5
:1017400020696E64657861646F20646562656E20EF
:101750006578697374697220616C206D656E6F7352
:1017600020646F7320766961732E005B4552524F7F
:10177000525D204E6F207365207075656465206929
:101780006E696369617220656C206D6F76696D6941
:10179000656E746F2E005B4552524F525D20507241
:1017A000696D65726F20656A656375746120277263
:1017B00065666572656E63696161717569272E0082
:1017C0005B4F4B5D205061736F20686F726172696F
:1017D0006F20696E69636961646F2E005B4F4B5DBA
:1017E000204D6F76696D69656E746F20686F7261E8
:1017F00072696F20696E64657861646F20696E69D3
:10180000636961646F2E005B4552524F525D204503
:101810006C207075656E7465206465626520657303
:101820007461722070617261646F207920656E63EB
:101830006C617661646F2E005B4F4B5D2056696171
:10184000206C6F67696361203120617369676E6125
:1018500064612061206C6120706F736963696F6ED1
:101860002066697369636120312E005B4F4B5D20F8
:101870005265666572656E63696120666973696346
:101880006120636F6E666967757261646120656E61
:1018900020706F736963696F6E20312E003A563184
:1018A0003A003A4D4F444F3A003A504F533A0045B0
:1018B0004E434C415641444F3A5649413A004D4FF0
:1018C00056494D49454E544F0053543A00434647FC
:1018D0003A454E44004346473A5649413A003A4E4B
:1018E0003A003A4C4E3A003A53473A003A4D433A9E
:1018F000003A4D4F444F3A003A504F533A00434656
:10190000473A4D4554413A56313A0000000008002C
:1019100002010000030407000000000000000000B6
:10192000042011241FBECFEFD8E0DEBFCDBF24E0DE
:10193000A0EEB2E001C01D92A33EB207E1F712E0B3
:10194000A0E0B1E0E2E4F9E502C005900D92A03E0E
:10195000B107D9F71CE0C1E9DCE004C02197FE0122
:101960000E945C2CC039D107C9F70E949C200C94BE
:101970009F2C0C9400000F931F93CF93DF93CDB750
:10198000DEB760970FB6F894DEBF0FBECDBF0097ED
:1019900009F4BFC09C0121503109832F8F70A90128
:1019A000569547954F7720FD2EC080646111806168
:1019B00092EB99834A838B8329E19EE2AE014F5FCC
:1019C0005F4F61E070E033E011E08981807680361E
:1019D000E1F48A818093F802E091F802E1501092DC
:1019E000F7028FEFF091F702FE17A0F4A091F70233
:1019F000A40FB52FB11DFC918F27F091F702FF5F67
:101A0000F093F702EFCF8066D1CF898182958670FF
:101A10008E5FE0CFE40FF52FF11D8083F894809165
:101A2000F602813059F48091F502891738F010924E
:101A3000F60280916F008D7F80936F007894809183
:101A4000F602813039F48091F502843108F4BDCF7B
:101A500010E0BBCF8091F60281110EC0F894809106
:101A60006F008F7D80936F00B59B09C080916F00E0
:101A7000806280936F0078941111A7CF57C0E091D6
:101A8000F302F091F4028081A091F2028B0102C076
:101A9000000F111FAA95E2F7802B8083E09184004C
:101AA000F0918500EA5AFC4FF093F102E093F002C6
:101AB000E091F002F091F102F0938900E093880048
:101AC00078945093EF024093EE021092F702109236
:101AD000ED0289818093EC023093F6021092F502B8
:101AE000B19A80916F00826080936F008091F602BE
:101AF0008330E1F38091ED028823B1F0E091EA02B6
:101B0000F091EB02E757FF4F80819181019691831D
:101B1000808360960FB6F894DEBF0FBECDBFDF9115
:101B2000CF911F910F9108958091F6029B3108F09B
:101B30009150215009F048CF809184039091850302
:101B400001969093850380938403E3CF833081F0E3
:101B500028F4813099F08230A9F008958730A9F0F7
:101B60008830C9F08430B1F4809180008F7D03C04B
:101B7000809180008F7780938000089584B58F775F
:101B800084BD089584B58F7DFBCF8091B0008F77A1
:101B90008093B00008958091B0008F7DF9CFCF93EE
:101BA000DF93282F30E0F901E55FF64E8491F901CB
:101BB000E85DF44FD491F901EC5EF44FC491CC236D
:101BC000A1F081110E94A60DEC2FF0E0EE0FFF1F97
:101BD000E65FF44FA591B491EC91ED2381E090E0A4
:101BE00009F480E0DF91CF91089580E090E0FACF92
:101BF0001F93CF93DF93282F30E0F901E55FF64E76
:101C00008491F901E85DF44FD491F901EC5EF44F51
:101C1000C491CC23A9F0162F81110E94A60DEC2FA0
:101C2000F0E0EE0FFF1FE050F54FA591B4918FB794
:101C3000F894EC91111108C0D095DE23DC938FBF8E
:101C4000DF91CF911F910895DE2BF8CFCF93DF93D3
:101C500090E0FC01E85DF44F24918C5E944FFC0110
:101C600084918823D1F090E0880F991FFC01EA50FD
:101C7000F54FA591B491FC01E050F54FC591D49179
:101C8000623071F49FB7F8943C91822F8095832342
:101C90008C93E8812E2B28839FBFDF91CF910895ED
:101CA0008FB7F894EC912E2B2C938FBFF6CFCF9358
:101CB000DF93EC0161E083E00E94260E209731F46F
:101CC00060E083E0DF91CF910C94F80DCF3FD10518
:101CD00011F461E0F6CFEEE0F9E1E491E33029F1AF
:101CE00040F4E130B1F0E230D9F0C038D1058CF7E2
:101CF000E7CFE73021F1E83051F1E430B1F78091DE
:101D00008000806280938000D0938B00C0938A0013
:101D100004C084B5806884BDC7BDDF91CF910895AC
:101D200084B5806284BDC8BDF8CF80918000806892
:101D300080938000D0938900C0938800EECF80917B
:101D4000B00080688093B000C093B300E6CF80916C
:101D5000B00080628093B000C093B400DECFAF9239
:101D6000BF92CF92DF92EF92FF920F931F93CF9388
:101D7000DF936C017B018B01040F151FEB015E01EA
:101D8000AE18BF08C017D10759F06991D601ED917F
:101D9000FC910190F081E02DC6010995892B79F71E
:101DA000C501DF91CF911F910F91FF90EF90DF90D0
:101DB000CF90BF90AF900895FC01538D448D252F97
:101DC00030E0842F90E0821B930B541710F0CF96D5
:101DD000089501970895FC01918D828D981761F007
:101DE000A28DAE0FBF2FB11D5D968C91928D9F5F1E
:101DF0009F73928F90E008958FEF9FEF0895FC01FD
:101E0000918D828D981731F0828DE80FF11D858DAF
:101E100090E008958FEF9FEF0895FC01918D228D42
:101E2000892F90E0805C9F4F821B91098F739927C7
:101E3000089588E893E00E940D0F21E0892B09F4B2
:101E400020E0822F089580E090E0892B29F00E9405
:101E5000190F81110C9400000895FC01A48DA80FA6
:101E6000B92FB11DA35ABF4F2C91848D90E00196DC
:101E70008F739927848FA689B7892C93A089B189FC
:101E80008C91837080648C93938D848D981306C09D
:101E90000288F389E02D80818F7D80830895EF9201
:101EA000FF920F931F93CF93DF93EC0181E0888F14
:101EB0009B8D8C8D98131AC0E889F989808185FFE4
:101EC00015C09FB7F894EE89FF896083E889F98986
:101ED00080818370806480839FBF81E090E0DF9188
:101EE000CF911F910F91FF90EF900895F62E0B8DDB
:101EF00010E00F5F1F4F0F731127E02E8C8D8E1196
:101F00000CC00FB607FCFACFE889F989808185FFFC
:101F1000F5CFCE010E942D0FF1CFEB8DEC0FFD2FF1
:101F2000F11DE35AFF4FF0829FB7F8940B8FEA89B7
:101F3000FB8980818062CFCF0F931F93CF93DF9374
:101F40008C01D0E0C0E0F801EC0FFD1F6491662326
:101F500041F088E893E00E944F0F892B11F0219601
:101F6000F2CFCE01DF91CF911F910F910895682F8D
:101F700088E893E00C944F0FCF93DF93EC01888DAA
:101F80008823B9F0AA89BB89E889F9898C9185FDF4
:101F900003C0808186FD0DC00FB607FCF7CF8C9182
:101FA00085FFF2CF808185FFEDCFCE010E942D0FFE
:101FB000E9CFDF91CF910895FC01938181E0890FF2
:101FC0002681211104C09E5F803319F40895813069
:101FD000E9F38C3031F49D30C9F781E08487838741
:101FE000F5CF853219F4943289F7F7CF8D3029F483
:101FF0009C3061F7148681E0F2CF843239F7953254
:1020000029F7F8CFFC018481811109C00190F0818A
:10201000E02D9681915081E0943008F080E00895A1
:10202000DC01F90112968C911297882301F19FEF40
:10203000960F9033D8F413969C919F5F691758F0D0
:10204000362F391B961758F0961BDA01931750F06C
:102050003C931082089530E3360F391BF5CF961B61
:10206000905DF3CF9C9391E09083089580E0089574
:102070002FEF260F283128F4FC01E60FF11D818196
:10208000089580E008950F931F93CF93DF932FEF70
:10209000260F203360F4D62F8C01C1E06C2FC801CD
:1020A0000E943810D81721F0CF5FC931B9F7C0E0CE
:1020B0008C2FDF91CF911F910F9108950F931F9354
:1020C000CF932FEF260F203388F4C62F8C010E9468
:1020D000431081110CC068E1C93108F068EE6C0F43
:1020E000C801CF911F910F910C94431080E0CF91C4
:1020F0001F910F9108950E94381091E0811101C045
:1021000090E0892F08950F931F93CF93DF938C0155
:10211000C1E0D0E06C2FC8010E947B108111DF5F0D
:10212000CF5FC931B9F78D2FDF91CF911F910F91FB
:102130000895EF92FF920F931F93CF93DF930FEFCA
:10214000060F083188F52FEF240F203368F5D42FC0
:10215000C62F7C01613031F5413031F511E0C117F6
:1021600041F0612FC7010E943810882311F0D81761
:10217000D9F01F5F193199F7C13041F0602FC701C5
:102180000E943810882311F08D1770F4F701EC0FBE
:10219000F11DD18381E0DF91CF911F910F91FF90CD
:1021A000EF9008954130D1F680E0F5CFFC01862F05
:1021B0009081911102C091E04927642F0C94F80D91
:1021C000CF93FC01C28182E00E94CF0D9C0181E08F
:1021D000C11105C02130310529F080E003C0213054
:1021E0003105D9F3CF910895CF93DF93EC010E948D
:1021F0000210882321F080E0DF91CF91089588813B
:1022000099810E94E0108823B1F391E09A831B82A8
:10221000F3CFFC016087218141E0222321F0662376
:1022200021F040E002C06623E1F365E00C94D61093
:10223000FF920F931F93CF93DF932FEF260F20333F
:1022400008F04FC0042F162FEC010E940210F82E48
:10225000811147C081E0888719870A871F828C8394
:102260001D830E831B861D861E861F86188A198A6B
:102270008A81882319F0CE010E94DC0F0881198120
:10228000F80186818150843060F41B861C821D8297
:1022900083E08F838F2DDF91CF911F910F91FF905E
:1022A0000895CE811782158660E08AE00E94F80DBD
:1022B0006C2FC8010E9409112FB7F8948091E60293
:1022C0009091E702A091E802B091E9022FBFF801D6
:1022D00081879287A387B48781E08683FF24F39464
:1022E000D9CFF12CD7CFEF92FF920F931F93CF93BB
:1022F000DF9300D000D0CDB7DEB78C01F62E0E9460
:102300000210811120C0F8018281882399F18FEF9A
:102310008F0D8033C0F4F8E198E1E92EFF1510F439
:1023200088EEE82EEF0C1C821B821A8219829E0115
:102330002E5F3F4FAE014C5F5F4F6F2DC8010E9473
:102340001010811102C080E015C09E012F5F3F4F29
:10235000AE014D5F5F4F6E2DC8010E9410108823A3
:1023600091F36C819B819617A8F061110EC091E0EA
:10237000F80197830F900F900F900F90DF91CF91FE
:102380001F910F91FF90EF9008954A81C8010E941C
:102390001811F0CF992359F34981692FF7CFBF92D4
:1023A000CF92DF92EF92FF920F931F93CF93DF9321
:1023B0008C01B62E7A010E94021081114CC0F701E7
:1023C0008181813071F04B2D61E0C801DF91CF91A7
:1023D0001F910F91FF90EF90DF90CF90BF900C94E2
:1023E000181182E0F8018087B2868281882399F1F2
:1023F000C7010E948310823070F1F80163816F5F22
:10240000C7010E945E10D82E8FEF8D0D883118F510
:102410006D2DC7010E947B108823E9F06D2DC70147
:102420000E943810C82F80E3C82EB1101FC0C033DF
:1024300008F5CF5F8FEF8C0F803350F4D1E06D2F14
:10244000C7010E943810C817C9F0DF5FD931B9F74A
:10245000CA94C110EACF80E0DF91CF911F910F9114
:10246000FF90EF90DF90CF90BF900895C23020F0A2
:10247000C150E0CFC1E0DECFC0E3DCCFDD1659F3C1
:102480006C2FC801DF91CF911F910F91FF90EF90BA
:10249000DF90CF90BF900C947311AB01FC012085AD
:1024A000222359F0213021F4428561850C941811C2
:1024B000223019F462850C94CF1180E00895CF93F7
:1024C000DF93EC0190E080E00E94570E40E066E070
:1024D000CE010E94D61061E08AE00E94F80D8E8144
:1024E0008150843010F482E08F831E82DF91CF917F
:1024F0000895DF92EF92FF920F931F93CF93DF9394
:102500007C018C01D0E0C0E0F801D1908F01CE01B8
:102510000E949B2BD81621F06D2DCE010E94A32B7B
:102520002196C735D10581F7C701DF91CF911F9162
:102530000F91FF90EF90DF9008950F931F93CF932B
:10254000DF93CDB7DEB7C755D1090FB6F894DEBF1C
:102550000FBECDBF81E08983A0912704B0912804EC
:1025600012968C9112972D968FAF2D9713968C9172
:1025700013978F5F2E968FAF2E97E0912904F091DD
:102580002A0481812C968FAF2C970D90BC91A02DA1
:102590001F968C912F968FAF2F97DF0112969E0179
:1025A0002D5F3F4F8F01065E1F4FCE014B96A80156
:1025B0006D91F90161939F01F801619171918F0112
:1025C000FC0161937193CF01A417B50789F7E091DE
:1025D0002B04F0912C043097F1F085819681689658
:1025E0009FAF8EAF68979781808560969FAF609709
:1025F00061968FAF6197CE0101960E947912C95AF8
:10260000DF4F0FB6F894DEBF0FBECDBFDF91CF9185
:102610001F910F91089568961FAE1EAE6897609641
:102620001FAE609761961FAE6197E5CFFC010190E8
:102630000020E9F73197AF01481B590BBC0188E82E
:1026400093E00C94AF0E82E191E00C941613CF93BB
:10265000DF930E949C0FEC010E9423138C0F9D1F9F
:10266000DF91CF9108958F929F92AF92BF920F9377
:102670001F93CF93DF93CDB7DEB7A1970FB6F89432
:10268000DEBF0FBECDBF19A2423008F44AE08E0172
:102690000F5D1F4F842E912CB12CA12CA50194010C
:1026A0000E94C12BE62FB901CA01EA30F4F4E05DC3
:1026B000D801EE938D01232B242B252B79F790E065
:1026C00080E0109719F0CD010E941613A1960FB665
:1026D000F894DEBF0FBECDBFDF91CF911F910F9158
:1026E000BF90AF909F908F900895E95CE1CFBC01BF
:1026F00090E080E04AE00C943313CF93DF930E9484
:102700007713EC010E9423138C0F9D1FDF91CF9153
:102710000895682F70E090E080E04AE00C94331355
:10272000CF93DF930E948913EC010E9423138C0F37
:102730009D1FDF91CF910895CF92DF92EF92FF928C
:10274000CF93DF936C01990FEE08FF08F7FE17C0D7
:102750008DE20E94B70FEC0166277727CB016C1939
:102760007D098E099F094AE00E9433138C0F9D1F3B
:10277000DF91CF91FF90EF90DF90CF9008954AE0E6
:10278000C701B601DF91CF91FF90EF90DF90CF901E
:102790000C943313CF93DF930E949C13EC010E949F
:1027A00023138C0F9D1FDF91CF9108951F93CF931B
:1027B000DF938EEF98E10E949C0FE0912704F09147
:1027C0002804828190E00E949C1388EF98E10E9487
:1027D0009C0FE0912704F09128048281882309F45A
:1027E00085C083818F5F90E00E949C1381EF98E108
:1027F0000E949C0FE0912904F0912A0481E090E06E
:102800002181213011F090E080E00E949C138CEE39
:1028100098E10E949C0FE0912704F0912804019018
:10282000F081E02D87850E94891387EE98E10E9450
:102830009C0FE0912B04F0912C0490E080E0309705
:1028400011F0858196810E94771382EE98E10E94B3
:102850009C0FE0912B04F0912C0481EE90E03097D6
:1028600011F0878190850E9477138EED98E10E9488
:102870009C0F8091290490912A040E9483100E9449
:102880009013C1E0D0E06C2F8091290490912A042C
:102890000E943810182F8823F1F085ED98E10E94EE
:1028A0009C0F8C2F0E9489138AE30E94B70F812FFF
:1028B0000E9489138AE30E94B70FE0912904F091E6
:1028C0002A04CE010C96880F991FE80FF91F80810A
:1028D00091810E947D132196C931D105A1F68DEC1D
:1028E00098E1DF91CF911F910C94271390E080E045
:1028F0007BCF89EC98E10E949C0F809127049091F6
:1029000028040E940210882321F08EEB98E10C9499
:1029100027138FEA98E10E949C0FE0912704F09121
:10292000280482818823C1F163816F5F809129042B
:1029300090912A040E945E1090E00E949C1389EA04
:1029400098E10E949C0FE0912704F0912804828175
:10295000882329F183818F5F90E00E949C1382EA93
:1029600098E10E949C0FE0912904F0912A0481E0F3
:1029700090E02181213011F090E080E00E949C13D2
:102980008DE998E10E949C0FE0912704F0912804C2
:10299000828190E00C94CA1390E080E0CECF90E06A
:1029A00080E0DBCFEF92FF920F931F93CF93DF93E3
:1029B00000D0CDB7DEB7009771F1FC012081222352
:1029C00051F17B018C011A8219824AE050E0BE016C
:1029D0006F5F7F4F0E94162AE981FA810E171F0749
:1029E000D1F02081211117C08B019C0101501109E8
:1029F00021093109003311052105310560F4F70182
:102A0000608381E00F900F90DF91CF911F910F9124
:102A1000FF90EF90089580E0F5CF22E0DC012C9349
:102A200011961C92FC01329628E1DF011D922A9535
:102A3000E9F74A9620E3FC0111922A95E9F70895F7
:102A4000EF92FF920F931F93CF93DF93EC017C01E2
:102A500010E000E0C8010E949B2BF70181937F01E9
:102A60000F5F1F4F07351105A9F788818130E9F005
:102A700085E5FE0111928A95E9F781E08883FE01E0
:102A8000E65BFF4F10823196108231968083399633
:102A900011821082C35BDF4F188280E0DF91CF91FB
:102AA0001F910F91FF90EF90089581E0F7CFCF93A2
:102AB000DF93CDB7DEB7C755D1090FB6F894DEBFA7
:102AC0000FBECDBFCE01019625E5FC0111922A95DE
:102AD000E9F721E029832E962FAF2E9768961FAE37
:102AE0001EAE68970E947912C95ADF4F0FB6F8944C
:102AF000DEBF0FBECDBFDF91CF9108954F925F92A1
:102B00006F927F929F92AF92BF92CF92DF92EF929D
:102B1000FF920F931F93CF93DF93CDB7DEB7CB55C3
:102B2000D1090FB6F894DEBF0FBECDBF8C0165E1B1
:102B300071E00E947F2C892B71F064E271E0C80182
:102B40000E947F2C892B39F06DE271E0C8010E9450
:102B50007F2C892BC1F580912704909128040E9435
:102B6000F410882359F1E0912904F0912A0481E0BE
:102B70008283138E128E0E949D128BE698E10E9432
:102B8000271388E398E10E9427130E947914C55AFD
:102B9000DF4F0FB6F894DEBF0FBECDBFDF91CF91F0
:102BA0001F910F91FF90EF90DF90CF90BF90AF906B
:102BB0009F907F906F905F904F90089587E098E18D
:102BC0000E942713E4CF61E371E0C8010E947F2CCB
:102BD000892B39F064E371E0C8010E947F2C892BB6
:102BE00099F54091290450912A0460E080912704CE
:102BF000909128040E94CF11E0912904F0912A04B9
:102C0000882349F08181813019F48CED97E1D8CF88
:102C100080EC97E1D5CF8181813081F4A0912704A8
:102C2000B091280412968C91811103C086E997E136
:102C3000C7CFCF010E948310823018F08BE697E156
:102C4000BFCF81E397E1BCCF61E471E0C8010E948E
:102C50007F2C892B39F064E471E0C8010E947F2C3D
:102C6000892B99F54091290450912A0461E08091C3
:102C70002704909128040E94CF11E0912904F0913B
:102C80002A04882349F08181813019F482E097E198
:102C900097CF82EE96E194CF8181813081F4A0912B
:102CA0002704B091280412968C91811103C088EBFF
:102CB00096E186CFCF010E948310823018F08DE814
:102CC00096E17ECF83E596E17BCF65E571E0C801B3
:102CD0000E947F2C892B51F4E0912904F0912A0461
:102CE00011820E949D1288E396E14DCF61E671E06A
:102CF000C8010E947F2C892BF1F4E0912704F09108
:102D000028048281811103C08EE096E159CF0091A1
:102D1000290410912A04C8010E948310823018F4FB
:102D20008BED95E14DCF81E0F80181830E949D12EA
:102D30008EEB95E128CF48E050E06FE671E0C801E6
:102D40000E94882C892B09F01BC15801F8E0AF0EB6
:102D5000B11CA114B10409F488C0F801808588234E
:102D600009F483C06C961FAE1EAE6C974AE050E02B
:102D7000BE01665A7F4FC5010E94162A6B017C0175
:102D80006C968EAD9FAD6C97A816B90609F46DC010
:102D9000D701C6010197A109B1094897A105B1055D
:102DA00008F063C06C968EAD9FAD6C97FC012081DE
:102DB000203231F401966C969FAF8EAF6C97F2CFB4
:102DC000222309F452C06A961FAE1EAE6A974AE0EB
:102DD00050E0BE01685A7F4F0E94162A2B013C0129
:102DE0006A962EAD3FAD6A976C968EAD9FAD6C978F
:102DF00028173907D1F1D301C2010197A109B109FF
:102E0000C097A105B10588F56A968EAD9FAD6A970A
:102E1000FC012081203231F401966A969FAF8EAF7B
:102E20006A97F2CFBC2C942C10E000E0222309F426
:102E3000B2C51A8219824AE050E0BE016F5F7F4F2F
:102E40000E94162AE981FA816A962EAD3FAD6A97F3
:102E5000E217F30751F02081211107C08B016115A2
:102E600071058140910508F496C58FE795E1A8CEDC
:102E7000A0902904B0902A046C2DC5010E947B10FB
:102E800081110DC0442D6C2D8091290490912A044C
:102E90000E949910811149C080E594E191CE6C2D7A
:102EA000C5010E943810891135C0EC2DF0E0EE0FFD
:102EB000FF1FEA0DFB1D808D918D0115110551F449
:102EC00084E195E10E949C0F8C2D0E9489138BEF69
:102ED00094E176CE0817190751F48EEE94E10E9422
:102EE0009C0F8C2D0E94891388ED94E169CE118F7F
:102EF000008F0E949D128EEC94E10E949C0F8C2DFD
:102F00000E94891387EB94E10E949C0FC8010E94E4
:102F10007D133BCE9801442D6C2DC5010E944E1FA0
:102F2000811111C087E894E14BCE209129043091A2
:102F30002A048C2D90E00C96880F991F820F931F06
:102F4000FC01118300830E949D128FE394E10E9493
:102F50009C0F8C2D0E94891382E294E10E949C0FA9
:102F6000842D0E9489130115110539F080E194E147
:102F70000E949C0FC8010E9477130E94231305CE64
:102F800048E050E068E771E0C8010E94882C892B76
:102F9000C9F51982BE016F5F7F4FC80108960E9474
:102FA000D214882341F01981193128F4113031F4F9
:102FB0008AEA93E105CE8BEE93E102CEE0902904FC
:102FC000F0902A04612FC7010E947B1081110AC072
:102FD0008AE993E10E949C0F89810E94891382E80B
:102FE00093E1EECD612FC7010E94D41F0E949D1274
:102FF00081E793E10E949C0F89810E94891385E6F5
:1030000093E1C1CD61E871E0C8010E947F2C892B5A
:1030100009F58091290490912A04FC013396DC0182
:103020005C964A9611921D921D928E179F07D1F7BA
:10303000E0912904F0912A0411820E949D1289E4F2
:1030400093E10E94271382E293E10E94271387E015
:1030500093E199CD6BE871E0C8010E947F2C892B28
:1030600041F064E971E0C8010E947F2C892B09F0CE
:10307000A1C080EE9BE00E9427138CEC9BE00E9495
:103080009C0FE0912904F0912A048181813009F09C
:103090004FC082EB9BE00E9427138BEB9BE00E94CA
:1030A0009C0F8091290490912A040E9483100E9411
:1030B0009013E0912704F09128048281D12C882379
:1030C00049F063816F5F8091290490912A040E94E6
:1030D0005E10D82E0E942313EE24E394F12C0E2DC3
:1030E0006E2D8091290490912A040E943810182F87
:1030F00086EA9BE00E949C0F0A3018F480E30E944D
:10310000B70F802F0E94891383EA9BE00E949C0FD7
:10311000111111C084E99BE00E942713FFEFEF1A01
:10312000FF0A29E1E216F104D1F68CE39BE048CDD9
:103130008BEA9BE0B0CF8AE89BE00E949C0F812F36
:103140000E9489138EE79BE00E949C0F8FEF810FF6
:10315000803370F588E1193108F088EE810F0E9404
:1031600089138CE79BE00E949C0FE0912904F09169
:103170002A04C7010C96880F991FE80FF91FA08039
:10318000B180A114B10459F081E79BE00E949C0F2B
:10319000C5010E9477138FE69BE00E949C0F0D11E2
:1031A00004C08DE59BE00E949C0F0E942313B6CFC4
:1031B00080E0D5CF43E050E069E971E0C8010E94AA
:1031C000882C892B09F04EC01982BE016F5F7F4F9A
:1031D000C80103960E94D214882371F01981193115
:1031E00058F4E0902704F0902804F70182818111BF
:1031F00006C088EB92E1E4CC82EE92E1E1CCC09093
:103200002904D0902A04612FC6010E947B108111ED
:103210000AC081EA92E10E949C0F89810E94891371
:103220008BE892E1CDCC612FC6010E943810182F97
:10323000682FC7010E947311811103C080E692E1DB
:10324000BFCC85E392E10E949C0F89810E94891383
:1032500082E292E10E949C0F812F0E9489138FE1EC
:1032600092E1AECC45E050E06DE971E0C8010E940A
:10327000882C892B09F04BC0C80105960E942D2B84
:103280007C010197C09750F088EF91E10E949C0F5C
:1032900080E30E94891386EF91E192CC009127048C
:1032A00010912804F8018281811103C08EEB91E115
:1032B00087CCC8010E940210811126C069961FAEFA
:1032C000699719829E012F5F3F4FAE01485A5F4FA9
:1032D0006E2DC8010E9410108823B1F069966FAD61
:1032E000699761110BC081E0F801878380E691E165
:1032F0000E949C0FC7010E94CA1349CC4981C80192
:103300000E9418118111F2CF83E991E159CC43E079
:1033100050E063EA71E0C8010E94882C892B49F5CE
:10332000C80103960E942D2B8C010197C09750F085
:1033300086E491E10E949C0F80E30E9489138EE352
:1033400091E13ECC40E0602F8091270490912804C9
:103350000E941811882351F082E291E10E949C0F93
:10336000C8010E949C1381E191E12ACC86EE90E194
:1033700027CC43E050E067EA71E0C8010E94882C46
:10338000892B49F5C80103960E942D2B8C010197CA
:10339000C09750F08CEC90E10E949C0F80E30E945B
:1033A000891384EC90E10CCC41E0602F80912704DC
:1033B000909128040E941811882351F084EA90E12A
:1033C0000E949C0FC8010E949C1383E990E1F8CBF6
:1033D00088E690E1F5CB60EB71E0C8010E947F2C9C
:1033E000892B39F06BEA71E0C8010E947F2C892B90
:1033F00081F440E068E180912704909128040E94C4
:103400001811882319F080E590E1DACB87E290E18A
:10341000D7CB64EB71E0C8010E947F2C892B81F42B
:103420000091270410912804F8011386808191816E
:103430000E945F12F8011482158289E090E1A3CB0B
:103440004AE050E06AEB71E0C8010E94882C892BA9
:1034500001F5C8010A960E942D2B8C018AED9FE090
:103460000F3F110511F008F0ABCBE0912504F0916E
:103470002604058386818150843018F4C8010E9497
:10348000570E85EC9FE00E949C0FC8010E94CA1352
:103490007CCB4EE050E065EC71E0C8010E94882CC6
:1034A000892B59F5C8010E960E944B2B6B017C01AC
:1034B0008BE89FE0C114D104F1E0EF06F10408F0BD
:1034C0007FCB8601E0912B04F0912C04309741F0E2
:1034D000D682C58281E0C114D10409F480E08483DE
:1034E0000E949D1283E69FE0012B09F44CCB8AE3F6
:1034F0009FE00E949C0FC6010ACD64ED71E0C801F7
:103500000E947F2C892B29F40E949D1283E19FE069
:1035100057CB6CED71E0C8010E947F2C892B39F0EC
:1035200069EE71E0C8010E947F2C892B69F50E9429
:1035300057158091290490912A040E940D15E0915D
:103540002704F091280412828FEF8383E0912B04EB
:10355000F0912C04309759F0168215821482E09174
:103560002B04F0912C0481EE90E0908787838CED02
:103570009EE00E94271383EA9EE00E9427130E9488
:1035800079140E94D61303CB61EF71E0C8010E9449
:103590007F2C892B41F06AEF71E0C8010E947F2CDB
:1035A000892B09F07AC087EE9CE00E94271381EBFB
:1035B0009CE00E94271389E79CE00E94271389E37F
:1035C0009CE00E9427130E9423138EE29CE00E943D
:1035D0009C0FE0912B04F0912C0490E080E0309758
:1035E00011F0858196810E94771389E29CE00E9408
:1035F0009C0FE0912B04F0912C0481EE90E0309729
:1036000011F0878190850E94771382E29CE00E94EE
:103610009C0FE0912904F0912A0481E090E021813F
:10362000213011F090E080E00E949C1301E010E056
:10363000EE24E394E00E6E2D8091290490912A04EB
:103640000E943810F82E8823F1F08CE19CE00E9453
:103650009C0F8E2D0E9489138AE30E94B70F8F2D35
:103660000E9489138AE30E94B70FE0912904F09128
:103670002A04C8010D96880F991FE80FF91F808151
:1036800091810E9477130F5F1F4F0831110581F65A
:103690000E94231383E09CE093CA47E050E068E077
:1036A00072E0C8010E94882C892B09F0EFC07801D4
:1036B00027E0E20EF11CE114F10421F0F80187810A
:1036C000811103C08CE89DE07BCA80912904909110
:1036D0002A04FC013396DC015C964A9611921D92F5
:1036E0001D928E179F07D1F7B12CF7018081882397
:1036F00069F16BE370E0C7010E94742C8C010097A4
:1037000011F0FC01108243E050E060E172E0C7017B
:103710000E94882C892B51F5C70103960E942D2BFE
:103720009C01E0912B04F0912C04309739F09683A2
:10373000858391E0232B09F490E094830115110512
:1037400029F07801FFEFEF1AFF0A79F60E949D1227
:103750008EE69DE00E94271387E59DE00E949C0F66
:103760008B2D0E9490138EE09DE007CF43E050E048
:1037700064E172E0C7010E94882C892B99F4C7018B
:1037800003960E942D2BE0912B04F0912C0430978E
:10379000A9F29C01215031092F3F374078F69087DC
:1037A0008783CCCF45E050E068E172E0C7010E941A
:1037B000882C892B71F4C70105960E942D2BE0916E
:1037C0002904F0912A0491E0813009F090E091837E
:1037D000B5CF44E050E06EE172E0C7010E94882C52
:1037E000892B09F0ABCF1A8219824AE050E0BE0162
:1037F0006F5F7F4FC70104960E94162AF62EE9815B
:10380000FA8180818A3319F43196FA83E9834AE098
:1038100050E0BE016F5F7F4F89819A810E94162A16
:10382000E62E89819A81FC012081D12CC12C2A337A
:1038300041F44AE050E070E060E001960E94162AF0
:103840006B018EEF8F0D873108F078CF8FEF8E0DE3
:10385000803308F073CF4E2D6F2D80912904909105
:103860002A040E949910882309F468CF2091290422
:1038700030912A048F2D90E00C96880F991F820FAB
:10388000931FFC01D182C082B39458CF63E272E0EF
:10389000C8010E947F2C892B09F070C0CE010196CF
:1038A0000E9420158EE69EE00E94271384E69EE08B
:1038B0000E949C0F89810E94901383E59EE00E94E4
:1038C0009C0F2C968FAD2C970E94901380E49EE065
:1038D0000E949C0F2D968FAD2D970E94901387E22A
:1038E0009EE00E949C0F2E968FAD2E970E94901303
:1038F00087E19EE00E949C0F68968EAD9FAD689711
:103900000E947D1387E09EE00E949C0F2F968FAD52
:103910002F97813081F58AEF9DE00E9427136E0179
:1039200023E0C20ED11C7E014BE1E40EF11C01E04C
:1039300010E088ED9DE00E949C0FC8010E949C133E
:1039400081ED9DE00E949C0FF60181916F010E9424
:10395000891388EC9DE00E949C0FF7018191919161
:103960007F010E947D130F5F1F4F0931110509F779
:1039700081EB9DE025C98DED9DE0CFCF85E89EE0F0
:103980000E949C0F0115110519F0C8010E94161321
:103990000E942313FCC8F1E0BF126ACA21E087E449
:1039A00095E192120DC9E0912704F09128048281DB
:1039B000811168CA81E295E103C91F920F920FB687
:1039C0000F9211242F933F938F939F93AF93BF93A5
:1039D0008091E6029091E702A091E802B091E9029D
:1039E0003091E50223E0230F2D3758F50196A11DF4
:1039F000B11D2093E5028093E6029093E702A09325
:103A0000E802B093E9028091E1029091E202A09174
:103A1000E302B091E4020196A11DB11D8093E10281
:103A20009093E202A093E302B093E402BF91AF91BE
:103A30009F918F913F912F910F900FBE0F901F90EC
:103A4000189526E8230F0296A11DB11DD2CF1F9213
:103A50000F920FB60F9211242F933F934F935F93C2
:103A60006F937F938F939F93AF93BF93EF93FF9346
:103A700088E893E00E942D0FFF91EF91BF91AF91E5
:103A80009F918F917F916F915F914F913F912F9176
:103A90000F900FBE0F901F9018951F920F920FB6A8
:103AA0000F9211242F938F939F93EF93FF93E091A5
:103AB0009803F09199038081E0919E03F0919F0318
:103AC00082FD1BC090818091A1038F5F8F73209135
:103AD000A203821741F0E091A103F0E0E857FC4F08
:103AE000958F8093A103FF91EF919F918F912F91DB
:103AF0000F900FBE0F901F9018958081F4CF1F92EA
:103B00000F920FB60F9211242F933F934F935F9311
:103B10006F937F938F939F93AF93BF93CF93DF93D5
:103B2000EF93FF93B19A8091F0029091F10280544B
:103B30009C4F9093F1028093F0028091F00290915B
:103B4000F10290938900809388008091E00288239D
:103B500071F01092E002189B25C081E08093F6027C
:103B6000B59A80916F00806280936F001BC0809136
:103B7000F5028F5F8093F5028091F6028430F1F5B3
:103B80008091F502893008F58091EC0290E09595DE
:103B900087958093EC02189B05C08091EC028068A9
:103BA0008093EC02FF91EF91DF91CF91BF91AF91A4
:103BB0009F918F917F916F915F914F913F912F9145
:103BC0000F900FBE0F901F901895B59A80916F00BF
:103BD000806280936F008091EA029091EB021899C5
:103BE0002AC0FC01E957FF4F8081918101969183A2
:103BF00080831092F50281E08093F6028091F602B4
:103C0000833009F048C0E091F302F091F402808122
:103C10002091F20233B190E0022E02C09595879573
:103C20000A94E2F7832780FD1CC01092F50282E01F
:103C30008093F60230C04091EC02FC01E058FF4F47
:103C4000208131E0320F3083820F911DDC014C93D3
:103C500037FD108280E090E0892B59F20E9400002D
:103C6000C8CF8091F502893008F043C03091EC0252
:103C700081E090E001C0880F2A95EAF7908130FF3B
:103C800036C08095892380838091EC0290E09595E1
:103C900087958093EC028091F602823099F48091AE
:103CA000F50281119FC0E091F302F091F40280814E
:103CB0009091F20221E030E001C0220F9A95EAF7DC
:103CC000822B80838091F602813009F06BCF809146
:103CD000F502882309F444CF8091F502883308F473
:103CE00061CF1092F60280916F008D7F3DCF892BBE
:103CF000CACF8091F502893059F4308181E090E09B
:103D000001C0880F2A95EAF7809583238083C3CF6B
:103D10008091F7028F5F8093F7029091F8028917E4
:103D200050F51092F5028091EE029091EF02A09171
:103D3000F702A80FB92FB11D8C918093EC028081FE
:103D400041E050E001C0440F2A95EAF7842B8083BC
:103D500080918400909185008A5A9C4F9093F10243
:103D60008093F0028091F0029091F102909389008B
:103D70008093880090CF81E08093ED02E091EE0285
:103D8000F091EF024091EA025091EB02808180763F
:103D90008036C9F4818130E020E0EA01C058DF4F6D
:103DA0002817B0F4DF01A20FB31F6C91A88191E036
:103DB0009A0F9883A40FB52FB11D6C9397FD1882AD
:103DC0002F5F3F4FEDCF8081829586708E5FE3CF6E
:103DD00080E090E0892B11F00E9400001092F50223
:103DE00081E026CF8091F5028F3008F46BCFE0910F
:103DF000F302F091F40220813091F20281E090E030
:103E000001C0880F3A95EAF780958223808310924B
:103E1000F50281E08093F602E091EA02F091EB0274
:103E2000E357FF4F808191810196918380834ACF30
:103E30001F920F920FB60F9211248F939F93EF93BF
:103E4000FF93B59AEFE6F0E080818F7D80838091CB
:103E500086009091870080529E4F9093F10280934C
:103E6000F0028091F0029091F1029093890080938A
:103E70008800B19A80818260808384E08093F6021A
:103E80001092F50281E08093E002FF91EF919F9103
:103E90008F910F900FBE0F901F901895BF92CF92E9
:103EA000DF92EF92FF920F931F93CF93DF935EEF1A
:103EB000560F573108F076C05FEF540F503308F0BB
:103EC00071C08901D42ED62F7C01BB24BA94B60EC2
:103ED0006B2DD23009F461E0C7010E947B10C82F1E
:103EE000882309F444C068E1C7010E947B10C82FF1
:103EF000811158C0CC24C394DC1541F06C2DC7014E
:103F00000E943810882311F0D81689F1C39489E1F2
:103F1000C812F2CF6B2DC7010E943810882311F010
:103F20008D1528F56D2FC7010E947B10882331F075
:103F30006D2FC7010E943810811117C0D701F701FA
:103F4000EA5BFF4F87E18D17E8F058969C915897F0
:103F500059969C93599720813181338322831197FD
:103F600032978D1779F08150EECFD81638F38C2F19
:103F7000DF91CF911F910F91FF90EF90DF90CF9045
:103F8000BF9008956D2F70E0F701E60FF71FD18203
:103F9000FB013C96EE0FFF1FEE0DFF1D118300830A
:103FA000C1E0E5CFC0E0E3CF1F93CF93DF93EC01F7
:103FB000162F8EEF860F873128F5CE010E947B10D9
:103FC0008823E1F0E12FF0E0DF011196AC0FBD1F77
:103FD0003C96EE0FFF1FEC0FFD1F183151F01196AC
:103FE0009C9111979D9322813381219331931F5F7F
:103FF000F4CF198EC85BDF4F19821882DF91CF9101
:104000001F91089580E0FACF0F931F93CF93DF9312
:10401000E8E8F3E01382128288EE93E0A0E0B0E0DB
:1040200084839583A683B78384E091E09183808322
:1040300085EC90E09587848784EC90E0978786876D
:1040400080EC90E0918B808B81EC90E0938B828B65
:1040500082EC90E0958B848B86EC90E0978B868B3E
:10406000118E128E138E148EEBEDF4E081E08083BE
:1040700011821282838384838FEF858386E0A6EC8E
:10408000B4E001900D928A95E1F706EC14E0F80196
:10409000168217821086118612861386148615865C
:1040A00016861786108A118A128A138A148AC4EB1C
:1040B000D4E0198308831A821B821C821D821E820F
:1040C0001F82188619861A861B861C861D861E86E8
:1040D0001F86188A198A8AE694E00E940D15EEE57B
:1040E000F4E0D183C0838AE694E0938382831482D0
:1040F0001682158221EE30E03087278311861286E2
:104100001386A5E2B4E011961C930E931396DC93EC
:10411000CE93129715969C938E9314971796FC93B3
:10412000EE931697D8961C92D89718961C92DF910A
:10413000CF911F910F910895CF93DF93CDB7DEB745
:10414000C15AD1090FB6F894DEBF0FBECDBF789427
:1041500084B5826084BD84B5816084BD85B582608C
:1041600085BD85B5816085BD80916E00816080933D
:104170006E001092810080918100826080938100A6
:1041800080918100816080938100809180008160B6
:10419000809380008091B10084608093B100809111
:1041A000B00081608093B00080917A008460809339
:1041B0007A0080917A00826080937A0080917A0000
:1041C000816080937A0080917A00806880937A0081
:1041D0001092C100E0919803F091990382E08083EE
:1041E000E0919403F09195031082E0919603F09191
:1041F000970380E180831092A003E0919C03F091EB
:104200009D0386E08083E0919A03F0919B03808177
:1042100080618083E0919A03F0919B0380818860A4
:104220008083E0919A03F0919B0380818068808372
:10423000E0919A03F0919B0380818F7D808361E000
:1042400083E00E94260E61E085E00E94260E61E078
:1042500086E00E94260E61E089E00E94260E61E061
:104260008AE00E94260E62E082E00E94260E62E052
:1042700084E00E94260E62E08EE00E94260E90E00E
:1042800080E00E94570E40E066E086EC94E00E94D9
:10429000D61060E086EC94E00E9409111092D604DA
:1042A00040E069E086EC94E00E94D61061E08AE08C
:1042B0000E94F80D86EC94E00E94E0108093D704F1
:1042C0001091CA0484E00E94CF0D9C0191E021303E
:1042D000310509F090E0112329F091E021303105FA
:1042E00009F490E09093D8041092CC041092B60494
:1042F0001092B7041092B8041092B9041092BB0443
:104300001092BF041092C0041092C1041092C20413
:104310001092C3041092C4041092C5041092BC04FD
:104320001092BD041092BE04E9EFF2E08FE8DF01C5
:104330001D928A95E9F761E087E00E94260EEFE280
:10434000FBE02491EBE1FBE0E491F0E0EE0FFF1FD6
:10435000E050F54F4591549180E091E031E029170C
:1043600041F08F5F932F082E01C0990F0A94EAF74E
:10437000F6CF5093F4024093F3028093F20289EF58
:1043800092E09093EB028093EA022098E091F3028E
:10439000F091F40220813091F20281E090E001C0BE
:1043A000880F3A95EAF780958223808310928000E7
:1043B00081E0809381001092F602B59A80916F009F
:1043C000806280936F0080918100887F81608093FC
:1043D00081008CEA90E00E9427138FE890E00E9411
:1043E000271388E690E00E942713CE0101960E94D1
:1043F0002015882309F4C1C02E968FAD2E9791E029
:104400002D962FAD2D97211101C090E09093B60409
:1044100081508093B7042C965FAD2C97DE011396E4
:1044200028E530E02C0F3D1F2E5F3F4FCE014B960D
:1044300018E5A12EB12CAC0EBD1EEAE1AE0EB11CEA
:104440007C01B50189014D91F80141938F01FC0177
:10445000C190D190CF01FB01C192D192BF01AE15A5
:10446000BF0589F7523048F5D90181E09D91F501EA
:10447000619171915F01911117C0672BF1F48F5F0A
:104480008931A1F782E069968FAF69976A965FAF2D
:104490006A978AE4FE01E85AFF4FAAE6B4E0019069
:1044A0000D928A95E1F709C04FEF490F403328F488
:1044B000813009F051C0913011F368962EAD3FADB7
:1044C0006897309364042093630481E0232B09F4FC
:1044D00080E08093620461968EAD9FAD61979C01F0
:1044E000215031092E3F3F4F10F081EE90E09C01AA
:1044F000215031092F3F374020F490936604809378
:1045000065042F968FAD2F97E091B404F091B50418
:10451000878786E091E00E94271301E08FB7F89427
:10452000C090E602D090E702E090E802F090E90245
:104530008FBF86EC94E00E94E010182FB090CA0460
:1045400084E00E94CF0D9C0191E0B1101BC021308E
:104550003105D9F090E019C0913009F4AECFB9011E
:1045600041E0FB011191BF01112319F0911709F4EA
:10457000A4CF4F5F4813F5CF82CF0E94571580ED2F
:1045800090E0C9CF2130310529F3112331F080911A
:10459000D704811102C00093D904992331F080918E
:1045A000D804811102C00093DA041093D7049093C9
:1045B000D8048091CC04823091F1843009F456C043
:1045C000813009F07AC08091CF049091D004A091FD
:1045D000D104B091D204A7019601281B390B4A0BD4
:1045E0005B0BDA01C9014497A105B10508F465C068
:1045F0008091CB0490E00E94570E41E066E086EC8B
:1046000094E00E94D610C092CF04D092D004E092E1
:10461000D104F092D20482E08093CC044EC0809109
:10462000CF049091D004A091D104B091D204A701FD
:104630009601281B390B4A0B5B0BDA01C901843F39
:104640009140A105B105C8F140E066E086EC94E038
:104650000E94D610C092CF04D092D004E092D10430
:10466000F092D2041092D30484E0D6CF86EC94E08A
:104670000E94E010811102C00093D3048091D30402
:10468000882309F42EC18091D504813009F024C11A
:104690008091DA041092DA04882309F422C140E000
:1046A00066E086EC94E00E94D61061E08AE00E9409
:1046B000F80D0093CD041092CC048091BF048823A0
:1046C00009F18091B4049091B5042091C1042111A5
:1046D0002FC10E94E010811115C00093C1042FB7B3
:1046E000F8948091E6029091E702A091E802B091DF
:1046F000E9022FBF8093C2049093C304A093C40423
:10470000B093C504E091B404F091B5048781178299
:10471000882309F45AC0813009F060C12091B604A1
:10472000222371F08091B7049091BA0491113FC196
:1047300090E0019660E370E00E94342C8093B7040F
:104740008091B904882319F081508093B904809135
:10475000B904882309F43BC11092BF041092C1042C
:104760001092C2041092C3041092C4041092C504A3
:10477000222321F084EB94E00E94DC0FE090B4044B
:10478000F090B504F70186818150843008F415C19A
:104790001091BA041782158660E08AE00E94F80D35
:1047A000612FC7010E9409112FB7F8948091E6028A
:1047B0009091E702A091E802B091E9022FBFF701C2
:1047C00081879287A387B4870683C0905E04D090C8
:1047D0005F04C6010E94021081113CC0D6011296EE
:1047E0008C9112978823B1F1E0906004F0906104FD
:1047F00013966C916F5FC7010E945E10182F809115
:1048000068048111F5C080916204882339F061E069
:1048100080916304909164040E94BB0C1123C1F049
:104820008FEF810F883108F0E0C020916004309153
:104830006104812F90E00C96880F991F820F931FBF
:10484000FC018081918161E00E94BB0C10936704A0
:104850000093680470E8F72EEE24EA9480917A03BE
:1048600090917903891709F494C1E82FF0E0E7509B
:10487000FD4F108117FF34C190917B03981751F0C1
:1048800020918003309181032F5F3F4F309381034C
:104890002093800380937B03E0927C03812F8076BA
:1048A000803609F0DCC010927D0380917A038F5F1F
:1048B00080937A03E0917B03282F2E1B87FD1092B3
:1048C0007A0380917C0390917D03291709F418C124
:1048D000182710937C03C2CF86EC94E00E94E0106E
:1048E000DBCE8091CF049091D004A091D104B091FF
:1048F000D204C81AD90AEA0AFB0A40E7C41647E1FB
:10490000D406E104F10408F4D8CE90E080E00E94DF
:10491000570E40E066E086EC94E00E94D61061E01D
:104920008AE00E94F80D84E08093CD0486E074CE86
:104930000E94E0108111E6CE2FB7F8948091E60234
:104940009091E702A091E802B091E9022FBF409157
:10495000C2045091C3046091C4047091C504841BC7
:10496000950BA60BB70B843F9140A105B10508F448
:10497000C9CE8091B4049091B5044091C004DC018B
:1049800050964C9369E00E94D6101092BF048EE6B8
:1049900091E00E949C0F8091C004882329F08AE452
:1049A00091E00E942713AECE89E291E0FACF811107
:1049B00002C08FE2C3CE8150C1CE1092B8041092D3
:1049C000B9041092BF0483E08093BB04FECE109222
:1049D000B8041092BF040093BB04F7CE1092B80441
:1049E0001092B9041092BF04EFCF90E080E02BCF7B
:1049F00080916704181709F42DCF882381F09FEF69
:104A0000980F983130F590E00C96880F991F8E0D15
:104A10009F1DDC018D919C9160E00E94BB0C1123D5
:104A2000A9F08FEF810F8831B8F4209160043091A4
:104A30006104812F90E00C96880F991F820F931FBD
:104A4000FC018081918161E00E94BB0C109367049E
:104A500001CF90E080E0E0CF90E080E0F4CF812FC4
:104A6000829586708E5F80937D0320917B03809179
:104A70007D03820F9927991F813891050CF415CF7A
:104A8000CF2CC21AF8944091790380917B0384174C
:104A900070F5F42FF81B8F2F809379037894609131
:104AA0007B03461738F5D12C50E069EF72E0C60160
:104AB00087509D4F0E94622C60917B0370E067508D
:104AC0007D4FA60189EF92E00E94622C80917A03CB
:104AD00090917B03891B80937A0310927B03E5CE30
:104AE00080917D038111E1CE10937D03BECF8C2D8B
:104AF000840FD2CF461B50E070E067507D4FE2CF6D
:104B000018139BC0F0E0E750FD4F20917E033091D9
:104B10007F032F5F3F4F30937F0320937E0390915D
:104B20007A0390937B03309709F4D2CE8081803B47
:104B300081F5928194FF2DC040E8949F900111244B
:104B4000207837708181282B2F5F3F4F409165047B
:104B50005091660424173507E0F0BA01615F7F4F7A
:104B600062177307B0F09072122F141B09F072C015
:104B700091110FC0E0905E04F0905F04D7011B9686
:104B80001C921B978D919C910E945F12F7011482D9
:104B9000158288E893E00E940D0F181619060CF094
:104BA00013C488E893E00E94EB0EE0915D048D3021
:104BB00019F08A3009F0F7C3EE2359F3F0E0EB5D0A
:104BC000FB4F108644E050E06FE272E08DE294E02B
:104BD0000E94882C892B09F079C249E050E064E3F7
:104BE00072E081E394E00E94882C892B09F0C2C016
:104BF0008AE394E00E942D2B182F8823D9F0C090CF
:104C00002904D0902A04682FC6010E947B108823B3
:104C100089F0E0902704F0902804D70112968C9137
:104C2000882341F0612FC6010E943810682FC70108
:104C30000E9473110E9479142CC12091800330913D
:104C400081032F5F3F4F3093810320938003F0E077
:104C5000E0E065CF1130A9F420915E0430915F044B
:104C6000911108C06091600470916104C9010E94B3
:104C70004D128FCF4091690468E1C9010E9418115B
:104C800088CF123079F4409160045091610461E062
:104C9000911101C060E080915E0490915F040E94D8
:104CA000CF1177CF133039F481E0911101C080E04A
:104CB000809369046ECF62E0F62E911102C0FF244A
:104CC000F39480915E0490915F04DC0112962C9124
:104CD000222309F45ECF0E94021081115ACF8091E5
:104CE0006804882339F180916204882339F060E0F8
:104CF00080916304909164040E94BB0C80916704CE
:104D00002091600430916104882381F09FEF980F17
:104D1000983168F590E00C96880F991F820F931FC9
:104D2000FC018081918160E00E94BB0C10926804BC
:104D3000109267041450110F1F0DE0906004F09062
:104D40006104612FC7010E947B10882309F421CFE1
:104D5000612FC7010E943810882309F41ACF682FE9
:104D600080915E0490915F040E94731112CF90E0D5
:104D700080E0D9CF6EE372E081E394E00E947F2C63
:104D8000892B89F4E0902704F0902804F70113861A
:104D9000808191810E945F12D70114961C92149712
:104DA00015961C9247CF64E472E081E394E00E9480
:104DB0007F2C892B59F46091290470912A048091E9
:104DC0002704909128040E944D1234CF6DE472E0C4
:104DD00081E394E00E947F2C40E068E1892B09F494
:104DE0006EC065E572E081E394E00E947F2C892B20
:104DF00099F480912704909128040E94F41088234C
:104E000009F418CFE0912904F0912A040283138E4B
:104E1000128E0E949D120ECF64E672E081E394E050
:104E20000E947F2C892BA9F48091290490912A0457
:104E3000FC013396DC015C964A9611921D921D92FC
:104E40008E179F07D1F7E0912904F0912A0411826F
:104E5000E0CF6DE672E081E394E00E947F2C892B25
:104E600091F367E772E081E394E00E947F2C892B45
:104E700031F4E0912904F0912A040183CACF63E858
:104E800072E081E394E00E947F2C892B29F40E9438
:104E90009D1210925D047DCE43E050E06BE872E01D
:104EA00081E394E00E94882C892B81F484E394E0D0
:104EB0000E942D2B40E0882309F4BCCE682F8091FE
:104EC0002704909128040E941811B4CE43E050E0CA
:104ED0006FE872E081E394E00E94882C892B49F40A
:104EE00084E394E00E942D2B882309F4A3CE41E0B3
:104EF000E5CF47E050E063E972E081E394E00E948F
:104F0000882C892BC1F488E394E00E942D2B182F64
:104F1000823008F48FCEE0902904F0902A04682FA4
:104F2000C7010E947B10882309F484CE612FC7013A
:104F30000E94D41F6ECF4AE050E06BE972E081E33B
:104F400094E00E94882C892B09F05BC01A82198298
:104F50004AE050E0BE016F5F7F4F8BE394E00E9418
:104F6000162A162FE981FA8180818A3319F4319645
:104F7000FA83E9834AE050E0BE016F5F7F4F898189
:104F80009A810E94162AB62E89819A81FC0120817D
:104F9000F12CE12C2A3341F44AE050E070E060E06B
:104FA00001960E94162A7B01C0902904D0902A0401
:104FB000612FC6010E947B10882339F097014B2D89
:104FC000612FC6010E944E1F24CF4B2D612FC601B9
:104FD0000E949910882309F41CCF20912904309154
:104FE0002A048FEF810F883108F013CF812F90E0D2
:104FF0000C96880F991F820F931FDC01ED92FC9293
:1050000008CF4DE050E066EA72E081E394E00E9450
:10501000882C892BA9F48EE394E00E942D2B9C010F
:10502000E0912B04F0912C04309739F0968385831E
:1050300091E0232B09F490E094830E949D120AC012
:1050400064EB72E081E394E00E947F2C892B29F4C9
:105050000E9479140E94D6131CCF47E050E06BEBFE
:1050600072E081E394E00E94882C892B99F488E314
:1050700094E00E942D2BE0912B04F0912C043097AA
:1050800049F39C01215031092F3F374018F7908791
:105090008783D3CF4CE050E063EC72E081E394E08F
:1050A0000E94882C892B09F0F4CE8DE394E00E94B5
:1050B0002D2BE0912704F09128040190F081E02D40
:1050C00091E0813009F090E09787B7CF60ED72E012
:1050D0008DE294E00E947F2C892B49F066ED72E00E
:1050E0008DE294E00E947F2C892B09F067C08FED40
:1050F0009AE00E94271380EB9AE00E9427138AE728
:105100009AE00E9427138BE19AE00E9427138FEC0C
:1051100099E00E9427138FE799E00E94271389E105
:1051200099E00E94271380EC98E00E9427138EE7F5
:1051300098E00E94271387E398E00E94271384EFEA
:1051400097E00E9427138BEB97E00E94271387E8D4
:1051500097E00E94271388E497E00E94271389EFC5
:1051600096E00E94271382E996E00E9427138CE5BF
:1051700096E00E94271383E196E00E9427138CEAB1
:1051800095E00E94271381E595E00E9427138CE0AB
:1051900095E00E9427138EEC94E00E9427138AE882
:1051A00094E00E94271386E394E00E9427138FED7A
:1051B00093E00E9427130E9423136BCE68ED72E0E8
:1051C0008DE294E00E947F2C892B09F0E7C088ECE7
:1051D00093E00E9427138FEB93E00E949C0F809135
:1051E0002704909128040E940210882309F489C0A2
:1051F0008AE993E00E94271388EA93E00E949C0FBB
:1052000080912504909126040E94E010882309F4DF
:105210007BC08AE793E00E94271381E893E00E9415
:105220009C0FE0912504F091260413818EE00E94EA
:10523000CF0D11116CC0019709F06CC087E593E0A8
:105240000E9427138EE593E00E949C0FE0912704B3
:10525000F09128048281882309F45FC089E293E0F9
:105260000E94271385E393E00E949C0FE09127049E
:10527000F09128048281882309F452C083818F5FD2
:105280000E9490138AEF92E00E949C0FE091270405
:10529000F09128048281811148C08EEE92E00E9434
:1052A00027138DE892E00E949C0FE0912904F09171
:1052B0002A048181813009F064C08CE592E00E946B
:1052C00027138DE792E00E949C0FE0912504F09156
:1052D000260485810E94901385E692E00E949C0F2F
:1052E000E0912B04F0912C04309709F454C085818F
:1052F0009681009709F048C089E492E00E94271344
:1053000045C080E993E076CF81E793E084CF0197B1
:1053100009F094CF8EE493E093CF8AE193E0A0CF9D
:105320008EE093E00E942713ADCF13811F5FC090E2
:105330002904D0902A04612FC6010E945E10F82E25
:1053400086ED92E0FF2009F4AACF6F2DC6010E94DE
:105350003810E82E81ED92E00E949C0F8F2D0E9464
:10536000891386EB92E00E949C0F8E2D0E94891378
:10537000E11621F086E992E00E949C0F84E992E018
:105380008ECF85E592E09BCF0E947D1385E292E06F
:105390000E9427137ECD8BE392E0B0CF8DE294E0A4
:1053A0000E947E1576CDEF3208F0F3CB21E02E0F70
:1053B000F0E0EB5DFB4F9FEB980F20935D049A317B
:1053C00008F4805E8087E5CBE0912704F091280403
:1053D00087811782882329F0823001F178F48130A7
:1053E000A1F080E090E0892B09F498C80E94190F81
:1053F000882309F492C80E9400008FC8833099F076
:10540000843079F78FE791E00BC087EF91E00E943D
:1054100027130E949D120E947914E3CF89ED91E039
:105420000E942713DECF8BEA91E0FACFB0E0A0E034
:10543000ECE1FAE20C94EF2B5C016B017A0161154F
:10544000710519F0FB0191838083E114F10451F09F
:10545000C7010297839730F040E030E020E090E011
:1054600072C05E01E5012196F5011081812F90E067
:105470000E94722B892BA9F71D3201F52196F501A7
:10548000118101E0E114F10409F4DAC0F0E1EF1652
:10549000F10409F082C0103359F488818F7D88357A
:1054A00009F076C0198122960260F0E1EF2EF12C0E
:1054B000812C912CA12C88E0B82E8CC01B3221F4B9
:1054C000E5012296F501118100E0DCCFEAE0EE165D
:1054D000F10409F4BBC0F0E1EF16F10409F06DC06E
:1054E000E7CF78E0E72EF12C812C912CA12C60E104
:1054F000B62E70C03FE9310F3A3128F439EA332E25
:1055000080C021E09AC0302F3170C114D10431F035
:10551000222309F12197F601D183C08327FF21C0FF
:1055200060E070E080E090E8311104C06FEF7FEF41
:105530008FEF9FE722E230E03093E2042093E10412
:10554000462F372F282F642F732F822FCDB7DEB72A
:10555000E1E10C940B2C01FF04C02297F601D183EA
:10556000C083332341F090958095709561957F4F6E
:105570008F4F9F4FE5CF97FFE3CF82E290E090936C
:10558000E2048093E1046FEF7FEF8FEF9FE7D8CFC6
:1055900010E3E114F10409F4A4CF28E0E216F104C9
:1055A00009F4A2CF0CF092CF812C912CA12CE0E435
:1055B000BE2E82E0E816F10469F060E070E080E061
:1055C00090E897010F2C000C440B550B0E94C12B47
:1055D00049015A0120E060E070E0CB0127010F2C67
:1055E000000C66087708FE0150ED352E310E39E0CB
:1055F000331540F43FEB310F3A3108F07BCF49ECE3
:10560000342E310E3E141F040CF07DCF27FD15C043
:1056100086169706A806B90678F0A30192010E94A3
:10562000B12B630D711D811D911D613071058105C7
:1056300020E8920708F465CF2FEF21961081D3CF91
:10564000103309F42ACF2AE0E22EF12C9CEC892EAB
:10565000982CA82C9CE0B92EBDCFFC018827992757
:10566000E89421912032E9F3293010F02E30C8F36C
:105670002B3241F02D3239F4689404C00E94902BF3
:10568000820F911D219120532A30C0F31EF4909572
:1056900081959F4F08951F93FC0199278827BC018E
:1056A000E89411911032E9F3193010F01E30C8F36C
:1056B0001B3251F01D3249F4689406C00E947B2BC6
:1056C000610F711D811D911D119110531A30B0F39E
:1056D0003EF490958095709561957F4F8F4F9F4FC9
:1056E0001F91089591110C94982B803219F08950D4
:1056F0008550C8F70895592F482F372F262F660F4A
:10570000771F881F991F660F771F881F991F620FC9
:10571000731F841F951F660F771F881F991F089599
:105720007AE0979F902D879F802D910D11240895E9
:10573000992788270895F999FECF92BD81BDF89ADF
:10574000992780B50895262FF999FECF1FBA92BDEB
:1057500081BD20BD0FB6F894FA9AF99A0FBE019652
:105760000895DB018F939F930E94E32BBF91AF912C
:10577000A29F800D911DA39F900DB29F900D1124AB
:105780000895A1E21A2EAA1BBB1BFD010DC0AA1F82
:10579000BB1FEE1FFF1FA217B307E407F50720F09A
:1057A000A21BB30BE40BF50B661F771F881F991F15
:1057B0001A9469F760957095809590959B01AC015E
:1057C000BD01CF0108950E94252CA59F900DB49F87
:1057D000900DA49F800D911D112408952F923F924A
:1057E0004F925F926F927F928F929F92AF92BF92F1
:1057F000CF92DF92EF92FF920F931F93CF93DF939D
:10580000CDB7DEB7CA1BDB0B0FB6F894DEBF0FBEF9
:10581000CDBF09942A88398848885F846E847D8446
:105820008C849B84AA84B984C884DF80EE80FD8048
:105830000C811B81AA81B981CE0FD11D0FB6F894BE
:10584000DEBF0FBECDBFED010895A29FB001B39F93
:10585000C001A39F700D811D1124911DB29F700D79
:10586000811D1124911D089597FB072E16F40094B5
:1058700007D077FD09D00E94482C07FC05D03EF4E4
:10588000909581959F4F0895709561957F4F0895EC
:10589000AA1BBB1B51E107C0AA1FBB1FA617B70756
:1058A00010F0A61BB70B881F991F5A95A9F7809572
:1058B0009095BC01CD010895EE0FFF1F0590F49166
:1058C000E02D09946817790768F4FB01DC01E40F07
:1058D000F51FA40FB51F02C002900E924150504018
:1058E000D8F708950C94962CFC018191861721F02D
:1058F0008823D9F7992708953197CF010895FB019F
:10590000DC018D91019080190110D9F3990B089554
:10591000FB01DC014150504030F08D910190801925
:1059200019F40020B9F7881B990B0895FB01DC01DD
:1059300002C001900D9241505040D8F70895F8945C
:02594000FFCF97
:10594200000000004F0FAF0EDC0EBC0F0D0FEB0E70
:10595200FF0E0D0A007265666572656E63696161AC
:1059620071756900766961316171756900763161BD
:10597200007068007061736F20686F726172696F86
:10598200007061007061736F20616E7469686F727C
:105992006172696F006D6F646F206E6F726D616C02
:1059A200006D6F646F20696E64657861646F007664
:1059B20069612061646420007669612064656C20FD
:1059C2000076696120636C65617200766961206CA2
:1059D2006973740076696173006972200069726587
:1059E2007820006D6820006D6120006769726F2069
:1059F2003138300070617261720076656C6F636974
:105A0200646164200073656E736F7220676C6F62ED
:105A1200616C200067756172646172007265736502
:105A22007420656570726F6D006661627269636190
:105A3200006578706F7274617200636F6E66696779
:105A4200206578706F727400696D706F72743A00BD
:105A520073673A006C6E3A006D6F646F3A00766954
:105A6200613A00656570726F6D2064756D700043F8
:105A72004D443A004D4F5645525649413A00504125
:105A8200524152005245414E5544415200474952FB
:105A92004F313830005245464552454E4349414107
:105AA20051554900564941434C454152004D4F44DE
:105AB2004E4F524D414C004D4F44494E4445584182
:105AC200444F0047554152444152004D483A004D1F
:105AD200413A0056494144454C3A005649414144F5
